S00C0000756172742E737265635C
S11300000C9434000C9451000C9451000C94510045
S11300100C9451000C9451000C9451000C94510018
S11300200C9451000C9451000C9451000C94510008
S11300300C9451000C9432010C9451000C94510016
S11300400C9451000C9451000C943F020C946D02DA
S11300500C9451000C9447010C9451000C945100E1
S11300600C9451000C94510011241FBECFEFD8E022
S1130070DEBFCDBF11E0A0E0B1E0E6E1F6E002C0F2
S113008005900D92AA35B107D9F721E0AAE5B1E0B0
S113009001C01D92AF39B207E1F70E94F6000C943B
S11300A009030C940000299A85E08A95F1F7000071
S11300B029980895CF93C82F662311F0289A01C078
S11300C02898549A559A569A579A5F985E985D98CC
S11300D05C98CC230CF45F9AC6FD5E9AC5FD5D9ACC
S11300E0C4FD5C9A0E9453005F985E985D985C988A
S11300F0C3FD5F9AC2FD5E9AC1FD5D9AC0FD5C9A24
S11301000E9453005C9A5D9A5E9A5F9A87EB9BE02B
S11301100197F1F700C00000CF91089560E00E94BC
S11301205A000895611104C080580E948E000895F9
S113013080540E948E00089581E00E948E000895EC
S113014061E00E945A000895CF93DF93EC01219659
S1130150FC018081882329F00E94A00089918111EB
S1130160FBCFDF91CF910895CF93C82F209A559A52
S1130170219A549A559A569A579A8FEF99EF019764
S1130180F1F700C000005D9A5C9A0E9453008FE171
S11301909EE40197F1F700C000000E9453008FEF26
S11301A090E00197F1F700C000000E9453008FEF28
S11301B090E00197F1F700C000005C980E945300A2
S11301C08FEF90E00197F1F700C0000088E20E94F1
S11301D08E0088E00E948E000E949C0086E00E94AF
S11301E08E008C2F0E948E00CF9108958CE00E9487
S11301F0B40060E081E00E94920089E091E00E94F6
S1130200A40061E081E00E94920080E191E00E94FC
S1130210A400ECE7F0E080818064808380818F77A4
S113022080838081807F8083EAE7F0E0808180683A
S11302308083808188608083808187608083EFE60B
S1130240F0E0808181608083E1E8F0E080818B7F51
S1130250808380818360808387E690E00E94970298
S11302607894FFCF1F920F920FB60F9211248F93A1
S1130270EF93FF93EAE7F0E0808180648083FF914D
S1130280EF918F910F900FBE0F901F9018951F92B2
S11302900F920FB60F921124EF92FF920F931F93B8
S11302A02F933F934F935F936F937F938F939F937A
S11302B0AF93BF93EF93FF93CF93DF93CDB7DEB7A5
S11302C02897DEBFCDBF00917800109179007801A6
S11302D088E0E0E0F1E0DE01119601900D928A954C
S11302E0E1F74AE0BE016F5F7F4FC8010E94D4026C
S11302F060E088E00E94920086E391E00E94A400FE
S113030060E088E00E949200CE0101960E94A40061
S11303100C3B82E0180764F485E191E00E94C50279
S1130320CE0101960E94C5028BE291E00E94C502B3
S113033060E08DE00E94920087E391E00E94A400B7
S113034040E1BE016F5F7F4FC8010E94D40260E0AC
S11303508DE00E949200CE0101960E94A40061E00B
S11303608DE00E9492008DE291E00E94A40000FDC5
S113037009C061E08FE00E94920080E391E00E9456
S1130380A40008C061E08FE00E94920082E391E043
S11303900E94A40061E086E00E94920084E391E060
S11303A00E94A40061E086E00E949200E114F1043E
S11303B041F48BE391E00E94A40061E086E00E9496
S11303C09200C8018B559109CB9740F481E491E0E8
S11303D00E94A40061E086E00E949200C801815F4F
S11303E09109879740F484E491E00E94A40061E0BD
S11303F086E00E949200C8018C589140C69740F450
S113040089E491E00E94A40061E086E00E949200E9
S1130410015812400B33110540F48EE491E00E9420
S1130420A40061E086E00E94920089EFE81683E070
S1130430F80644F085E591E00E94A40061E086E0BE
S11304400E94920028960FB6F894DEBF0FBECDBF6F
S1130450DF91CF91FF91EF91BF91AF919F918F91D8
S11304607F916F915F914F913F912F911F910F91C8
S1130470FF90EF900F900FBE0F901F9018951F9252
S11304800F920FB60F9211242F938F939F93EF9394
S1130490FF938091C0002091C6008C71E0915C01B3
S11304A0EF5FEF7190915B01E91739F0E0935C0124
S11304B0F0E0E15AFE4F208301C082E090915A019E
S11304C0892B80935A01FF91EF919F918F912F91E6
S11304D00F900FBE0F901F9018951F920F920FB69A
S11304E00F9211248F939F93EF93FF9390915E014A
S11304F080915D01981769F0E0915D01EF5FEF7104
S1130500E0935D01F0E0E158FE4F80818093C600E6
S113051005C0E1ECF0E080818F7D8083FF91EF9155
S11305209F918F910F900FBE0F901F90189510926E
S11305305E0110925D0110925C0110925B0199239F
S11305401CF422E02093C00090789093C50080931F
S1130550C40088E98093C10086E08093C2000895B6
S113056020915E012F5F2F7190915D012917E1F3B6
S1130570E22FF0E0E158FE4F808320935E01E1EC2E
S1130580F0E08081806280830895CF93DF93EC0153
S11305908881882331F021960E94B00289918111CB
S11305A0FBCFDF91CF910895BB274A3031F49923D3
S11305B022F4BDE2909581959F4F0C94E002BB27F5
S11305C0FB015527AA27880F991FAA1FA41710F00B
S11305D0A41B83955051B9F7A05DAA3308F0A95D17
S11305E0A193009779F7B111B1931192CB010C94B7
S11305F0F902DC01FC01672F71917723E1F732974F
S113060004C07C916D9370836291AE17BF07C8F3E9
S10906100895F894FFCFE9
S113061620202020202020200076616C75653A0079
S11306266B65793A004144432076616C75652069AF
S11306366E20646563696D616C3A000A00703A0065
S11306463100300020202020202000526967687481
S113065600557000446F776E004C656674005365F0
S10D06666C656374004E6F6E65004E
S9030000FC
