S00C0000756172742E737265635C
S11300000C9434000C9451000C9451000C94510045
S11300100C9451000C9451000C9451000C94510018
S11300200C9451000C9451000C9451000C94510008
S11300300C9451000C944A010C9451000C945100FE
S11300400C9451000C9451000C942C020C945A0200
S11300500C9451000C945F010C9451000C945100C9
S11300600C9451000C94510011241FBECFEFD8E022
S1130070DEBFCDBF11E0A0E0B1E0E8EAF5E002C0E8
S113008005900D92A234B107D9F721E0A2E4B1E0C2
S113009001C01D92A738B207E1F70E94F6000C9444
S11300A0D2020C940000299A85E08A95F1F70000A9
S11300B029980895CF93C82F662311F0289A01C078
S11300C02898549A559A569A579A5F985E985D98CC
S11300D05C98CC230CF45F9AC6FD5E9AC5FD5D9ACC
S11300E0C4FD5C9A0E9453005F985E985D985C988A
S11300F0C3FD5F9AC2FD5E9AC1FD5D9AC0FD5C9A24
S11301000E9453005C9A5D9A5E9A5F9A87EB9BE02B
S11301100197F1F700C00000CF91089560E00E94BC
S11301205A000895611104C080580E948E000895F9
S113013080540E948E00089581E00E948E000895EC
S113014061E00E945A000895CF93DF93EC01219659
S1130150FC018081882329F00E94A00089918111EB
S1130160FBCFDF91CF910895CF93C82F209A559A52
S1130170219A549A559A569A579A8FEF99EF019764
S1130180F1F700C000005D9A5C9A0E9453008FE171
S11301909EE40197F1F700C000000E9453008FEF26
S11301A090E00197F1F700C000000E9453008FEF28
S11301B090E00197F1F700C000005C980E945300A2
S11301C08FEF90E00197F1F700C0000088E20E94F1
S11301D08E0088E00E948E000E949C0086E00E94AF
S11301E08E008C2F0E948E00CF9108958CE00E9487
S11301F0B40060E081E00E94920089E091E00E94F6
S1130200A40061E083E00E94920080E191E00E94FA
S1130210A40060E088E00E94920085E191E00E94E1
S1130220A40060E08DE00E94920087E191E00E94CA
S1130230A40061E088E00E94920089E191E00E94BC
S1130240A400ECE7F0E080818064808380818F7774
S113025080838081807F8083EAE7F0E080818F67FC
S113026080838081876F80838081886F8083EFE6BD
S1130270F0E0808181608083E1E8F0E080818B7F21
S1130280808380818360808387E690E00E9484027B
S11302907894FFCF1F920F920FB60F9211248F9371
S11302A0EF93FF93EAE7F0E0808180648083FF911D
S11302B0EF918F910F900FBE0F901F9018951F9282
S11302C00F920FB60F921124EF92FF920F931F9388
S11302D02F933F934F935F936F937F938F939F934A
S11302E0AF93BF93EF93FF93CF93DF93CDB7DEB775
S11302F02897DEBFCDBF0091780010917900780176
S113030088E0E0E0F1E0DE01119601900D928A951B
S1130310E1F760E088E00E949200CE0101960E941D
S1130320A4004AE0BE016F5F7F4FC8010E949D0296
S113033060E088E00E949200CE0101960E94A40031
S113034060E08DE00E9492008EE191E00E94A400A2
S113035040E1BE016F5F7F4FC8010E949D0260E0D3
S11303608DE00E949200CE0101960E94A40061E0FB
S113037088E00E9492008BE191E00E94A40061E079
S113038088E00E9492000115110541F482E291E097
S11303900E94A40061E088E00E949200C8018B558D
S11303A09109CB9740F488E291E00E94A40061E0B7
S11303B088E00E949200C801815F9109879740F408
S11303C08BE291E00E94A40061E088E00E94920028
S11303D0C8018C589140C69740F480E391E00E9494
S11303E0A40061E088E00E949200015812400B339F
S11303F0110540F485E391E00E94A40061E088E0E7
S11304000E94920089EFE81683E0F80644F08CE33A
S113041091E00E94A40061E088E00E949200289686
S11304200FB6F894DEBF0FBECDBFDF91CF91FF9121
S1130430EF91BF91AF919F918F917F916F915F9158
S11304404F913F912F911F910F91FF90EF900F903B
S11304500FBE0F901F9018951F920F920FB60F9218
S113046011242F938F939F93EF93FF938091C00058
S11304702091C6008C71E0914401EF5FEF7190917F
S11304804301E91739F0E0934401F0E0E95BFE4FE2
S1130490208301C082E090914201892B8093420124
S11304A0FF91EF919F918F912F910F900FBE0F901D
S11304B01F9018951F920F920FB60F9211248F93CD
S11304C09F93EF93FF939091460180914501981774
S11304D069F0E0914501EF5FEF71E0934501F0E0D1
S11304E0E959FE4F80818093C60005C0E1ECF0E03D
S11304F080818F7D8083FF91EF919F918F910F90E9
S11305000FBE0F901F90189510924601109245014E
S1130510109244011092430199231CF422E0209389
S1130520C00090789093C5008093C40088E98093BC
S1130530C10086E08093C2000895BB274A3031F49D
S1130540992322F4BDE2909581959F4F0C94A902C2
S1130550BB27FB015527AA27880F991FAA1FA41799
S113056010F0A41B83955051B9F7A05DAA3308F08D
S1130570A95DA193009779F7B111B1931192CB01C1
S11305800C94C202DC01FC01672F71917723E1F71F
S1130590329704C07C916D9370836291AE17BF074C
S10B05A0C8F30895F894FFCF9D
S11305A820202020202020200076616C75653A00E8
S11305B86B65793A006100620063002020202020E6
S11305C82000526967687400557000446F776E00A4
S11305D84C6566740053656C656374004E6F6E6594
S10505E800000D
S9030000FC
