S00B00004441432E7372656351
S11300000C9484000C94A1000C94A1000C94A10005
S11300100C94A1000C94A1000C94A1000C94A100D8
S11300200C94A1000C94AC030C94A1000C94A100BA
S11300300C94A1000C9466030C94A1000C94A100F0
S11300400C947B030C94A1000C946D050C949B05FB
S11300500C94A1000C94F9030C94A1000C94A1003D
S11300600C94A1000C94A10007634236B79BD8A757
S11300701A39685618AEBAAB558C1D3CB7CC5763C9
S1130080BD6DEDFD753EF6177231BF000000803F77
S113009005A84CCDB2D44EB93836A9020C50B9914A
S11300A08688083CA6AAAA2ABE000000803F080051
S11300B00000BE922449123EABAAAA2ABECDCCCCE3
S11300C04C3E00000080BEABAAAAAA3E000000007D
S11300D0BF000000803F0000000000084178D3BB4F
S11300E04387D1133D190E3CC3BD4282AD2B3E68FC
S11300F0EC8276BED98FE1A93E4C80EFFFBE01C4ED
S1130100FF7F3F000000000011241FBECFEFD8E0A6
S1130110DEBFCDBF11E0A0E0B1E0E2E2F5E102C054
S113012005900D92A035B107D9F721E0A0E5B1E023
S113013001C01D92AD39B207E1F70E94DC020C94B4
S11301408F0A0C940000FC01408121E030E002C0E1
S1130150220F331F6A95E2F7242B20830895FC01B4
S1130160908121E030E002C0220F331F6A95E2F74C
S11301702095292320830895FC01408121E030E06B
S113018002C0220F331F6A95E2F7242B20830895BF
S1130190FC01408121E030E002C0220F331F6A9548
S11301A0E2F7242720830895299A85E08A95F1F7B8
S11301B0000029980895CF93C82F662311F0289A38
S11301C001C02898549A559A569A579A5F985E98FF
S11301D05D985C98CC230CF45F9AC6FD5E9AC5FDCD
S11301E05D9AC4FD5C9A0E94D4005F985E985D9805
S11301F05C98C3FD5F9AC2FD5E9AC1FD5D9AC0FD25
S11302005C9A0E94D4005C9A5D9A5E9A5F9A87EB2E
S11302109BE00197F1F700C00000CF91089560E0E2
S11302200E94DB000895611104C080580E940F01F0
S1130230089580540E940F01089581E00E940F01E7
S1130240089561E00E94DB000895CF93DF93EC01F1
S11302502196FC018081882329F00E942101899143
S11302608111FBCFDF91CF910895CF93C82F209AAE
S1130270559A219A549A559A569A579A8FEF99EF0C
S11302800197F1F700C000005D9A5C9A0E94D400C7
S11302908FE19EE40197F1F700C000000E94D400B2
S11302A08FEF90E00197F1F700C000000E94D400A6
S11302B08FEF90E00197F1F700C000005C980E9476
S11302C0D4008FEF90E00197F1F700C0000088E2BE
S11302D00E940F0188E00E940F010E941D0186E028
S11302E00E940F018C2F0E940F01CF9108954F920D
S11302F05F926F927F928F929F92AF92BF92CF92B2
S1130300DF92EF92FF92CF93DF93EC018091000193
S1130310811138C0BE0180E090E00E94170723ECF1
S113032035EF48EC50E40E94070820910101309118
S1130330020140910301509104010E940708209199
S113034005013091060140910701509108010E9476
S11303506F060E94C40820E030E040E85FE30E949A
S1130360030620E030E04FE753E40E94070820E052
S113037030E040E05FE30E9407080E94E806262F71
S1130380972F8EC0813051F5C0900501D0900601A1
S1130390E0900701F0900801BE0180E090E00E9427
S11303A017072091010130910201409103015091FE
S11303B004010E940708A70196010E945F0720E03C
S11303C030E04FE753E40E940708A70196010E941A
S11303D06F060E94E806262F972F62C0823009F02C
S11303E05AC0C0900501D0900601E0900701F0903A
S11303F008018090010190900201A0900301B09047
S11304000401A5019401C701B6010E946F0620E012
S113041030E040E05FE30E9407080E94E106AB0180
S1130420BC01CE01BA010E94460A80E090E00E941D
S113043017079B01AC0160E070E080E89FEB0E942D
S113044074082B013C01BE0180E090E00E94170774
S1130450A50194010E940708A70196010E945F0765
S11304604B015C0120E030E04FE753E4C301B201EB
S11304700E9407089B01AC010E940306A501940198
S11304800E940708A70196010E946F060E94E806D1
S1130490262F972F05C08A3009F003C020E090E092
S11304A0822FDF91CF91FF90EF90DF90CF90BF909C
S11304B0AF909F908F907F906F905F904F90089532
S11304C0CF93C82F80FF07C063E070E08BE290E019
S11304D00E94BC0006C063E070E08BE290E00E94E2
S11304E0AF00C1FF07C062E070E08BE290E00E94C1
S11304F0BC0006C062E070E08BE290E00E94AF00B6
S1130500C2FF07C061E070E08BE290E00E94BC0093
S113051006C061E070E08BE290E00E94AF00C3FF90
S113052007C060E070E08BE290E00E94BC0006C06F
S113053060E070E08BE290E00E94AF00C4FF07C06F
S113054066E070E088E290E00E94BC0006C066E0CD
S113055070E088E290E00E94AF00C5FF07C065E04C
S113056070E088E290E00E94BC0006C065E070E0A4
S113057088E290E00E94AF00C6FF07C064E070E02C
S113058088E290E00E94BC0006C064E070E088E26B
S113059090E00E94AF00C7FF07C063E070E088E20C
S11305A090E00E94BC0006C063E070E088E290E046
S11305B00E94AF00CF9108958CE00E94350160E065
S11305C081E00E94130180E191E00E94250161E035
S11305D081E00E9413018BE191E00E94250160E01B
S11305E070E08AE290E00E94A30061E070E08AE299
S11305F090E00E94A30062E070E08AE290E00E9432
S1130600A30063E070E08AE290E00E94A30066E049
S113061070E084E290E00E94A30063E070E087E26F
S113062090E00E94A30064E070E087E290E00E9402
S1130630A30065E070E087E290E00E94A30066E01A
S113064070E087E290E00E94A300E0E7F0E08081A0
S113065081608083E1EBF0E08081897F8083808109
S113066081608083EFE6F0E0808181608083E1E84F
S1130670F0E080818B7F8083808183608083EEE6DD
S1130680F0E080818160808385B58C7F85BD85B5F0
S1130690846085BDECE7F0E08081806480838081A4
S11306A08F7780838081807F8083EAE7F0E0808198
S11306B08068808380818860808380818760808374
S11306C087E690E00E94C5057894FFCF1F920F92B1
S11306D00FB60F9211248F93EF93FF93EAE7F0E0A4
S11306E0808180648083FF91EF918F910F900FBE82
S11306F00F901F9018951F920F920FB60F9211240E
S11307002F933F934F935F936F937F938F939F9315
S1130710AF93BF93EF93FF93809150019091510158
S11307209C012F5F3F4F30935101209350010E9451
S113073077010E946002FF91EF91BF91AF919F9169
S11307408F917F916F915F914F913F912F910F9076
S11307500FBE0F901F9018951F920F920FB60F9215
S113076011242F933F934F935F936F937F938F93B2
S11307709F93AF93BF93EF93FF9380915401909114
S1130780550101969093550180935401209156018F
S1130790309157013695279582179307C8F08091B9
S11307A0520190915301029798F066E070E085E25F
S11307B090E00E94C800109255011092540180915B
S11307C052019091530101979093530180935201E8
S11307D0FF91EF91BF91AF919F918F917F916F9115
S11307E05F914F913F912F910F900FBE0F901F90EB
S11307F018951F920F920FB60F9211240F931F9307
S11308002F933F934F935F936F937F938F939F9314
S1130810AF93BF93EF93FF93CF93DF93CDB7DEB73F
S11308202697DEBFCDBF009178001091790086E055
S1130830E9E0F1E0DE01119601900D928A95E1F76D
S11308404AE0BE016F5F7F4FC8010E945A0A0C3B09
S113085082E0180760F483E291E00E94F305CE0180
S113086001960E94F30589E391E00E94F30560E09C
S11308708CE00E9413018BE391E00E94250160E06B
S11308808CE00E941301CE0101960E942501C8014B
S1130890825D9140C69770F41092000182E290E06C
S11308A090935701809356018CE291E09093530109
S11308B080935201C80189569140439778F481E0AE
S11308C08093000180E290E0909357018093560159
S11308D08CE291E09093530180935201C801875CAC
S11308E09109099778F482E0809300018EE190E009
S11308F090935701809356018CE291E090935301B9
S113090080935201C801835C9140099760F480E2AE
S113091090E090935701809356018CE291E090937C
S1130920530180935201C8018B549140099760F49C
S11309308EE190E090935701809356018CE291E010
S11309409093530180935201C8018D5891090997DE
S113095060F48DE190E090935701809356018CE20E
S113096091E09093530180935201C801855A9140BC
S11309700B9760F480E290E09093570180935601C6
S11309808CE291E09093530180935201C801835209
S11309909140099760F48DE190E090935701809322
S11309A056018CE291E09093530180935201C80167
S11309B087549109099760F48BE190E09093570173
S11309C0809356018CE291E09093530180935201FD
S11309D0C801875891404397A0F460910101709138
S11309E0020180910301909104019B01AC010E94DA
S11309F003066093010170930201809303019093B5
S1130A000401C801815F91090997B0F420E030E046
S1130A1040E05FE360910101709102018091030164
S1130A20909104010E9407086093010170930201F0
S1130A308093030190930401012B21F48AE08093B5
S1130A40000118C080910001811108C061E08CE0B0
S1130A500E94130180E491E00E942501809100012D
S1130A60813041F461E08CE00E94130184E491E060
S1130A700E94250180910001823041F461E08CE004
S1130A800E94130188E491E00E94250180910001F5
S1130A908A3041F461E08CE00E9413018CE491E01F
S1130AA00E94250126960FB6F894DEBF0FBECDBF77
S1130AB0DF91CF91FF91EF91BF91AF919F918F9172
S1130AC07F916F915F914F913F912F911F910F9162
S1130AD00F900FBE0F901F9018951F920F920FB694
S1130AE00F9211242F938F939F93EF93FF938091F1
S1130AF0C0002091C6008C71E0915A01EF5FEF7144
S1130B0090915901E91739F0E0935A01F0E0E35A62
S1130B10FE4F208301C082E090915801892B80937D
S1130B205801FF91EF919F918F912F910F900FBEDC
S1130B300F901F9018951F920F920FB60F921124C9
S1130B408F939F93EF93FF9390915C0180915B014E
S1130B50981769F0E0915B01EF5FEF71E0935B013F
S1130B60F0E0E358FE4F80818093C60005C0E1ECBD
S1130B70F0E080818F7D8083FF91EF919F918F9131
S1130B800F900FBE0F901F90189510925C01109259
S1130B905B0110925A011092590199231CF422E02E
S1130BA02093C00090789093C5008093C40088E996
S1130BB08093C10086E08093C200089520915C0177
S1130BC02F5F2F7190915B012917E1F3E22FF0E081
S1130BD0E358FE4F808320935C01E1ECF0E08081D8
S1130BE0806280830895CF93DF93EC01888188230A
S1130BF031F021960E94DE0589918111FBCFDF91AE
S1130C00CF9108955058BB27AA270E941A060C9426
S1130C10CD070E94BF0738F00E94C60720F039F4C0
S1130C209F3F19F426F40C94BC070EF4E095E7FBFF
S1130C300C94A807E92F0E94DE0758F3BA1762073D
S1130C4073078407950720F079F4A6F50C9400083F
S1130C500EF4E0950B2EBA2FA02D0B01B9019001D3
S1130C600C01CA01A0011124FF27591B99F0593F17
S1130C7050F4503E68F11A16F040A22F232F342F5F
S1130C804427585FF3CF469537952795A795F040AD
S1130C905395C9F77EF41F16BA0B620B730B840BC2
S1130CA0BAF09150A1F0FF0FBB1F661F771F881F7A
S1130CB0C2F70EC0BA0F621F731F841F48F48795D2
S1130CC077956795B795F7959E3F08F0B0CF9395C4
S1130CD0880F08F09927EE0F9795879508950E943D
S1130CE083060C94CD070E94C60758F00E94BF07E4
S1130CF040F029F45F3F29F00C94A80751110C949B
S1130D0001080C94BC070E94DE0768F39923B1F331
S1130D10552391F3951B550BBB27AA27621773071D
S1130D20840738F09F5F5F4F220F331F441FAA1FB1
S1130D30A9F335D00E2E3AF0E0E832D0915050406D
S1130D40E695001CCAF72BD0FE2F29D0660F771F1B
S1130D50881FBB1F261737074807AB07B0E809F001
S1130D60BB0B802DBF01FF2793585F4F3AF09E3F86
S1130D70510578F00C94A8070C9401085F3FE4F344
S1130D80983ED4F3869577956795B795F7959F5FC9
S1130D90C9F7880F911D9695879597F90895E1E015
S1130DA0660F771F881FBB1F621773078407BA0774
S1130DB020F0621B730B840BBA0BEE1F88F7E095CF
S1130DC008950E94E8066894B1110C9401080895EE
S1130DD00E94E60788F09F5798F0B92F9927B751DA
S1130DE0B0F0E1F0660F771F881F991F1AF0BA95CB
S1130DF0C9F714C0B13091F00E940008B1E0089521
S1130E000C940008672F782F8827B85F39F0B93F12
S1130E10CCF3869577956795B395D9F73EF490957D
S1130E208095709561957F4F8F4F9F4F0895E894FB
S1130E3009C097FB3EF490958095709561957F4F1E
S1130E408F4F9F4F9923A9F0F92F96E9BB279395CC
S1130E50F695879577956795B795F111F8CFFAF4DC
S1130E60BB0F11F460FF1BC06F5F7F4F8F4F9F4F0D
S1130E7016C0882311F096E911C0772321F09EE86B
S1130E80872F762F05C0662371F096E8862F70E0D1
S1130E9060E02AF09A95660F771F881FDAF7880FAB
S1130EA09695879597F908950E94BF0720F019F049
S1130EB00E94C60750F40C94BC070C940108E92F57
S1130EC00E94DE0788F35523B1F3E7FB621773072B
S1130ED084079507A8F189F3E92FFF2788232AF0CF
S1130EE03197660F771F881FDAF7952F552744230C
S1130EF032F091505040220F331F441FD2F7BB27CA
S1130F00E91BF50B621B730B840BB109B1F222F4DC
S1130F10620F731F841FB11D31972AF0660F771F6C
S1130F20881FBB1FEFCF9150504062F041F08823DF
S1130F3032F0660F771F881F91505040C1F7939588
S1130F400C94AE078695779567959F5FD9F7F7CF91
S1130F5097F99F6780E870E060E008959F3F31F063
S1130F60915020F4879577956795B795880F911DD3
S1130F709695879597F908959FEF80EC089500243E
S1130F800A941616170618060906089500240A94EA
S1130F9012161306140605060895092E0394000C70
S1130FA011F4882352F0BB0F40F4BF2B11F460FFFF
S1130FB004C06F5F7F4F8F4F9F4F089557FD905828
S1130FC0440F551F59F05F3F71F04795880F97FB09
S1130FD0991F61F09F3F79F08795089512161306C3
S1130FE01406551FF2CF4695F1DF08C016161706F2
S1130FF01806991FF1CF8695710561050894089527
S1131000E894BB2766277727CB0197F908950E94B8
S11310101A080C94CD070E94BF0738F00E94C60737
S113102020F0952311F00C94A8070C94BC0711240C
S11310300C9401080E94DE0770F3959FC1F3950F8D
S113104050E0551F629FF001729FBB27F00DB11D48
S1131050639FAA27F00DB11DAA1F649F6627B00DD8
S1131060A11D661F829F2227B00DA11D621F739FC1
S1131070B00DA11D621F839FA00D611D221F749FCF
S11310803327A00D611D231F849F600D211D822F16
S1131090762F6A2F11249F5750409AF0F1F088233D
S11310A04AF0EE0FFF1FBB1F661F771F881F91506A
S11310B05040A9F79E3F510580F00C94A8070C946A
S11310C001085F3FE4F3983ED4F3869577956795DE
S11310D0B795F795E7959F5FC1F7FE2B880F911D94
S11310E09695879597F90895FA01EE0FFF1F3096AC
S11310F021053105A1F16115710561F48038BFE363
S11311009B0749F168949038810561F08038BFEFFE
S11311109B0741F099234AF5FF3FE105310521057D
S113112019F1E8940894E795D901AA2329F4AB2F7F
S1131130BE2FF85FD0F310C0FF5F70F4A695E0F700
S1131140F73950F019F0FF3A38F49F779F930DD098
S11311500F9007FC9058089546F00C94BC0760E08B
S113116070E080E89FE308954FE79F775F934F9384
S11311703F932F930E94B6092F913F914F915F9116
S11311800E9407080C94D4089F930E942F090F9083
S113119007FCEE5F0C94580929F416F00C94A80788
S11311A00C9400080C94BC070E94E607A8F3963838
S11311B0A0F707F80F92E8942BE33AEA48EB5FE7CD
S11311C00E941D080F920F920F924DB75EB70F92B7
S11311D00E94FE09E8E6F0E00E9406094F915F9143
S11311E0EF91FF91E595EE1FFF1F49F0FE57E06870
S11311F04427EE0F441FFA95E1F74195550B0E94E1
S113120078090F9007FE0C946C090895DF93CF932F
S11312101F930F93FF92EF92DF927B018C016894EE
S113122006C0DA2EEF010E941A08FE01E894A59187
S11312302591359145915591A6F3EF010E941A0627
S1131240FE019701A801DA9469F7DF90EF90FF900F
S11312500F911F91CF91DF9108950C94BC070E94C8
S1131260E607D8F3E894E0E0BB279F57F0F02AEDB7
S11312703FE049EC06C0EE0FBB0F661F771F881FC7
S113128028F0B23A62077307840728F0B25A620B57
S1131290730B840BE3959A9572F7803830F49A9522
S11312A0BB0F661F771F881FD2F790480C94B007B6
S11312B0EF93E0FF07C0A2EA2AED3FE049EC5FEBC1
S11312C00E941A060E94CD070F90039401FC9058C7
S11312D0E0E9F0E00C94320A9B01AC0160E070E0BC
S11312E080E89FE30C946F060C94A8070C94AE0757
S11312F00E94E607D8F39923C9F3940F511DA3F371
S11313009150504094F059F0882332F0660F771FC3
S1131310881F91505040C1F79E3F51052CF7880F0C
S1131320911D9695879597F908955F3FACF0983E87
S11313309CF0BB27869577956795B79508F4B160BF
S11313409395C1F7BB0F58F711F460FFE8CF6F5FB7
S11313507F4F8F4F9F4FE3CF0C94010816F00C94EE
S1131360AE070C94BC0768940C94A8070E94E60787
S1131370A8F39923C1F3AEF3DF93CF931F930F9395
S1131380FF92C92FDD2788232AF02197660F771F44
S1131390881FDAF720E030E040E85FEB9FE388390C
S11313A020F0803E38F021968F770E940306EEEA03
S11313B0F0E004C00E940306EBEDF0E00E94060991
S11313C08B01BE01EC01FB2E6F5771097595771FD8
S11313D0880B990B0E94190728E132E741E35FE388
S11313E00E941A08AF2D9801AE01FF900F911F9132
S11313F0CF91DF910E941A060C94CD07FA01DC010B
S1131400AA0FBB1F9B01AC01BF5728F42227332727
S11314104427507820C0B75190F4AB2F0024469550
S113142037952795011CA395D2F3002071F0220F64
S1131430331F441FB395DAF30ED00C9402066130C7
S11314407105A0E88A07B94630F49B01AC01662710
S1131450772788279078309621F020833183428340
S1131460538308959F938F937F936F93FF93EF9389
S11314709B01AC010E940708EF91FF910E940609AD
S11314802F913F914F915F910C940708AA1BBB1BAE
S113149051E107C0AA1FBB1FA617B70710F0A61B70
S11314A0B70B881F991F5A95A9F780959095BC0191
S11314B0CD010895BB274A3031F4992322F4BDE2CB
S11314C0909581959F4F0C94660ABB27FB01552785
S11314D0AA27880F991FAA1FA41710F0A41B83958D
S11314E05051B9F7A05DAA3308F0A95DA193009704
S11314F079F7B111B1931192CB010C947F0ADC01FD
S1131500FC01672F71917723E1F7329704C07C9136
S11315106D9370836291AE17BF07C8F30895F89472
S1051520FFCFF7
S11315220A0AD7A33B0000A040202020202020004C
S11315326164635F76616C75653A007072756265A9
S1131542683A004144432076616C756520696E20D7
S1131552646563696D616C3A000A002020202000F2
S113156273696E0073617700747269006F66660056
S9030000FC
