S00B00006C63642E73726563E6
S11300000C9434000C9451000C9451000C94510045
S11300100C9451000C9451000C9451000C94510018
S11300200C9451000C943D010C9451000C9451001B
S11300300C9451000C9451000C9451000C945100F8
S11300400C9451000C9451000C9451000C945100E8
S11300500C9451000C9451000C9451000C945100D8
S11300600C9451000C94510011241FBECFEFD8E022
S1130070DEBFCDBF11E0A0E0B1E0E0E1F5E002C0F9
S113008005900D92A831B107D9F721E0A8E1B1E0BC
S113009001C01D92A032B207E1F70E94FA000C944D
S11300A086020C940000299A85E08A95F1F70000F5
S11300B029980895CF93C82F662311F0289A01C078
S11300C02898549A559A569A579A5F985E985D98CC
S11300D05C98CC230CF45F9AC6FD5E9AC5FD5D9ACC
S11300E0C4FD5C9A0E9453005F985E985D985C988A
S11300F0C3FD5F9AC2FD5E9AC1FD5D9AC0FD5C9A24
S11301000E9453005C9A5D9A5E9A5F9A87EB9BE02B
S11301100197F1F700C00000CF91089560E00E94BC
S11301205A00089561E00E945A000895611104C0C4
S113013080580E948E00089580540E948E00089575
S113014081E00E948E00089561E00E945A000895A3
S1130150CF93DF93EC012196FC018081882329F061
S11301600E94A40089918111FBCFDF91CF91089562
S1130170CF93C82F209A559A219A549A559A569AF1
S1130180579A8FEF99EF0197F1F700C000005D9A3D
S11301905C9A0E9453008FE19EE40197F1F700C03E
S11301A000000E9453008FEF90E00197F1F700C028
S11301B000000E9453008FEF90E00197F1F700C018
S11301C000005C980E9453008FEF90E00197F1F7D4
S11301D000C0000088E20E948E0088E00E948E0029
S11301E00E94A00086E00E948E008C2F0E948E0048
S11301F0CF9108958CE00E94B80080E40E948E00A4
S1130200C0E0D1E008E011E089910E949200C0179B
S1130210D107D1F780E80E948E0060E08FE00E9451
S1130220960080E00E94A40060E081E00E949600B5
S11302308EE091E00E94A80060E08BE00E949600AE
S113024081E60E94A40061E081E00E94960082E6BB
S11302500E94A40062E08BE00E94960083E60E9464
S1130260A400E1EBF0E0808187608083E0E7F0E0C8
S11302708081816080837894FFCF1F920F920FB6A4
S11302800F9211242F933F934F935F936F937F9318
S11302908F939F93AF93BF93EF93FF93CF93DF938A
S11302A0CDB7DEB72797DEBFCDBF80E290E29A8359
S11302B0898385E0E8E0F1E0DE01139601900D9278
S11302C08A95E1F780911F018F5F80931F018091D0
S11302D01E018F5F8C3318F480931E0137C0109277
S11302E01E0180911D018F5F8C3318F480931D01D2
S11302F01AC010921D0160E08CE00E94960086E115
S113030091E00E94A80060E08DE00E94960086E1E2
S113031091E00E94A80060E08EE00E94960086E1D1
S113032091E00E94A80080911D014AE0BE016D5F2A
S11303307F4F889FC00111240E94510260E08BE02E
S11303400E949600CE0103960E94A80080911F018E
S1130350863008F48DC010921F0180911C018F5FBC
S11303608A3018F480931C0107C010921C018091FC
S11303701B018F5F80931B0180911B018A3038F031
S113038010921B0180911A018F5F80931A01809152
S11303901A01863038F010921A01809119018F5F8A
S11303A08093190180911901893038F01092190154
S11303B0809118018F5F8093180180911801863015
S11303C010F01092180180911C014AE0BE016F5F89
S11303D07F4F90E00E94510260E087E00E94960007
S11303E0CE0101960E94A80080911B014AE0BE0143
S11303F06F5F7F4F90E00E94510260E085E00E94B1
S11304009600CE0101960E94A80080911A014AE04C
S1130410BE016F5F7F4F90E00E94510260E084E074
S11304200E949600CE0101960E94A80080911901B5
S11304304AE0BE016F5F7F4F90E00E94510260E08E
S113044082E00E949600CE0101960E94A80080914D
S113045018014AE0BE016F5F7F4F90E00E94510295
S113046060E081E00E949600CE0101960E94A800FF
S113047027960FB6F894DEBF0FBECDBFDF91CF91A4
S1130480FF91EF91BF91AF919F918F917F916F9168
S11304905F914F913F912F910F900FBE0F901F903E
S11304A01895BB274A3031F4992322F4BDE2909584
S11304B081959F4F0C945D02BB27FB015527AA270A
S11304C0880F991FAA1FA41710F0A41B83955051DD
S11304D0B9F7A05DAA3308F0A95DA193009779F755
S11304E0B111B1931192CB010C947602DC01FC01A1
S11304F0672F71917723E1F7329704C07C916D9354
S113050070836291AE17BF07C8F30895F894FFCFC4
S11305101F09051319141F0020202020200030304B
S10B05203A30302E30002000B7
S9030000FC
