S00B00006C63642E73726563E6
S11300000C9434000C9451000C9451000C94510045
S11300100C9451000C9451000C9451000C94510018
S11300200C9451000C9433010C9451000C94510025
S11300300C9451000C9451000C9451000C945100F8
S11300400C9447020C9451000C9451000C945100F0
S11300500C9451000C9451000C9451000C945100D8
S11300600C9451000C94510011241FBECFEFD8E022
S1130070DEBFCDBF11E0A0E0B1E0E2E0F6E002C0F7
S113008005900D92A034B107D9F721E0A0E4B1E0C6
S113009001C01D92AB34B207E1F70E94FA000C9440
S11300A0FF020C940000299A85E08A95F1F700007C
S11300B029980895CF93C82F662311F0289A01C078
S11300C02898549A559A569A579A5F985E985D98CC
S11300D05C98CC230CF45F9AC6FD5E9AC5FD5D9ACC
S11300E0C4FD5C9A0E9453005F985E985D985C988A
S11300F0C3FD5F9AC2FD5E9AC1FD5D9AC0FD5C9A24
S11301000E9453005C9A5D9A5E9A5F9A87EB9BE02B
S11301100197F1F700C00000CF91089560E00E94BC
S11301205A00089561E00E945A000895611104C0C4
S113013080580E948E00089580540E948E00089575
S113014081E00E948E00089561E00E945A000895A3
S1130150CF93DF93EC012196FC018081882329F061
S11301600E94A40089918111FBCFDF91CF91089562
S1130170CF93C82F209A559A219A549A559A569AF1
S1130180579A8FEF99EF0197F1F700C000005D9A3D
S11301905C9A0E9453008FE19EE40197F1F700C03E
S11301A000000E9453008FEF90E00197F1F700C028
S11301B000000E9453008FEF90E00197F1F700C018
S11301C000005C980E9453008FEF90E00197F1F7D4
S11301D000C0000088E20E948E0088E00E948E0029
S11301E00E94A00086E00E948E008C2F0E948E0048
S11301F0CF9108958CE00E94B80080E40E948E00A4
S1130200C0E0D1E00AE211E089910E949200C01797
S1130210D107D1F780E80E948E0060E081E00E945F
S1130220960086E391E00E94A80062E08BE00E94C1
S1130230960083E60E94A400E1EBF0E080818760F1
S11302408083E0E7F0E080818160808385B58D7FE5
S113025085BD85B5856085BDEEE6F0E08081816071
S113026080837894FFCF1F920F920FB60F921124C0
S11302702F933F934F935F936F937F938F939F93AA
S1130280AF93BF93EF93FF93CF93DF93CDB7DEB7D5
S11302902797DEBFCDBF80E290E29A83898385E011
S11302A0E0E3F1E0DE01139601900D928A95E1F707
S11302B080914A018F5F80934A01809149018F5F49
S11302C08C3318F48093490137C01092490180910E
S11302D048018F5F8C3318F4809348011AC0109240
S11302E0480160E08CE00E9496008EE391E00E9459
S11302F0A80060E08DE00E9496008EE391E00E94E9
S1130300A80060E08EE00E9496008EE391E00E94D7
S1130310A800809148014AE0BE016D5F7F4F889F2D
S1130320C00111240E94CA0260E08BE00E94960082
S1130330CE0103960E94A80080914A01863008F4F9
S11303408DC010924A01809147018F5F8A3018F462
S11303508093470107C010924701809146018F5F47
S113036080934601809146018A3038F0109246010C
S1130370809145018F5F80934501809145018630CE
S113038038F010924501809144018F5F80934401BD
S113039080914401893038F01092440180914301E6
S11303A08F5F8093430180914301863010F0109257
S11303B04301809147014AE0BE016F5F7F4F90E0A7
S11303C00E94CA0260E087E00E949600CE01019676
S11303D00E94A800809146014AE0BE016F5F7F4FF2
S11303E090E00E94CA0260E085E00E949600CE017F
S11303F001960E94A800809145014AE0BE016F5F0A
S11304007F4F90E00E94CA0260E084E00E94960060
S1130410CE0101960E94A800809144014AE0BE01E9
S11304206F5F7F4F90E00E94CA0260E082E00E940A
S11304309600CE0101960E94A800809143014AE0F3
S1130440BE016F5F7F4F90E00E94CA0260E081E0CE
S11304500E949600CE0101960E94A80027960FB62E
S1130460F894DEBF0FBECDBFDF91CF91FF91EF9126
S1130470BF91AF919F918F917F916F915F914F91B8
S11304803F912F910F900FBE0F901F9018951F92C0
S11304900F920FB60F9211242F933F934F935F93B4
S11304A06F937F938F939F93AF93BF93EF93FF9338
S11304B0809142018F5F80934201823039F48091B0
S11304C041018F5F8093410110924201809141016B
S11304D0853009F044C010924101809140018F5F42
S11304E0863019F0809340013AC01092400161E0D7
S11304F081E00E9496008EE391E00E94A80061E0F2
S113050082E00E9496008EE391E00E94A80061E0E0
S113051083E00E9496008EE391E00E94A80061E0CF
S113052084E00E9496008EE391E00E94A80061E0BE
S113053085E00E9496008EE391E00E94A80061E0AD
S113054086E00E9496008EE391E00E94A80061E09C
S113055087E00E9496008EE391E00E94A8008091BB
S1130560400161E08F5F0E949600809141010E94EA
S1130570A400FF91EF91BF91AF919F918F917F91D3
S11305806F915F914F913F912F910F900FBE0F90FC
S11305901F901895BB274A3031F4992322F4BDE209
S11305A0909581959F4F0C94D602BB27FB0155274C
S11305B0AA27880F991FAA1FA41710F0A41B8395BC
S11305C05051B9F7A05DAA3308F0A95DA193009733
S11305D079F7B111B1931192CB010C94EF02DC01C4
S11305E0FC01672F71917723E1F7329704C07C9166
S11305F06D9370836291AE17BF07C8F30895F894A2
S1050600FFCF26
S11306020000000000000000101010101010101064
S113061218181818181818181C1C1C1C1C1C1C1C34
S11306221E1E1E1E1E1E1E1E1F1F1F1F1F1F1F1FDC
S113063220202020200030303A30302E300020009C
S9030000FC
