S00B00006C63642E73726563E6
S11300000C9434000C9451000C9451000C94510045
S11300100C9451000C9451000C9451000C94510018
S11300200C9451000C943D010C9451000C9451001B
S11300300C9451000C9451000C9451000C945100F8
S11300400C9451000C9451000C9451000C945100E8
S11300500C9451000C9451000C9451000C945100D8
S11300600C9451000C94510011241FBECFEFD8E022
S1130070DEBFCDBF11E0A0E0B1E0E4E4F7E002C0F0
S113008005900D92A031B107D9F721E0A0E1B1E0CC
S113009001C01D92A931B207E1F70E94FA000C9445
S11300A0A0030C940000299A85E08A95F1F70000DA
S11300B029980895CF93C82F662311F0289A01C078
S11300C02898549A559A569A579A5F985E985D98CC
S11300D05C98CC230CF45F9AC6FD5E9AC5FD5D9ACC
S11300E0C4FD5C9A0E9453005F985E985D985C988A
S11300F0C3FD5F9AC2FD5E9AC1FD5D9AC0FD5C9A24
S11301000E9453005C9A5D9A5E9A5F9A87EB9BE02B
S11301100197F1F700C00000CF91089560E00E94BC
S11301205A00089561E00E945A000895611104C0C4
S113013080580E948E00089580540E948E00089575
S113014081E00E948E00089561E00E945A000895A3
S1130150CF93DF93EC012196FC018081882329F061
S11301600E94A40089918111FBCFDF91CF91089562
S1130170CF93C82F209A559A219A549A559A569AF1
S1130180579A8FEF99EF0197F1F700C000005D9A3D
S11301905C9A0E9453008FE19EE40197F1F700C03E
S11301A000000E9453008FEF90E00197F1F700C028
S11301B000000E9453008FEF90E00197F1F700C018
S11301C000005C980E9453008FEF90E00197F1F7D4
S11301D000C0000088E20E948E0088E00E948E0029
S11301E00E94A00086E00E948E008C2F0E948E0048
S11301F0CF9108958CE00E94B80080E40E948E00A4
S1130200C0E0D1E008E011E089910E949200C0179B
S1130210D107D1F780E80E948E0060E08FE00E9451
S1130220960080E00E94A40060E081E00E949600B5
S113023088E091E00E94A80060E08BE00E949600B4
S113024081E60E94A40061E081E00E94960082E6BB
S11302500E94A40062E08BE00E94960083E60E9464
S1130260A400E1EBF0E0808187608083E0E7F0E0C8
S11302708081816080837894FFCF1F920F920FB6A4
S11302800F9211241F932F933F934F935F936F9378
S11302907F938F939F93AF93BF93EF93FF93CF93EA
S11302A0DF93CDB7DEB72697DEBFCDBF80E290E205
S11302B09A8389839C838B839E838D838091180189
S11302C08F5F80931801809117018F5F8C3318F42E
S11302D0809317012AC010921701109116011F5F15
S11302E010931601612F70E080E090E00E9470028C
S11302F09B01AC010E94D6020E9441026093150149
S11303001B3310F01092160160E08BE00E949600FF
S1130310809115014AE0BE016D5F7F4F90E00E941D
S11303206B03CE0103960E94A800809118018630C9
S113033008F48DC010921801809114018F5F8A30E7
S113034018F48093140107C01092140180911301D2
S11303508F5F80931301809113018A3038F01092DB
S11303601301809112018F5F809312018091120119
S1130370863038F010921201809111018F5F8093C2
S1130380110180911101893038F01092110180918E
S113039010018F5F8093100180911001863010F05E
S11303A010921001809114014AE0BE016F5F7F4FEB
S11303B090E00E946B0360E087E00E949600CE010B
S11303C001960E94A800809113014AE0BE016F5F6C
S11303D07F4F90E00E946B0360E085E00E949600EE
S11303E0CE0101960E94A800809112014AE0BE014C
S11303F06F5F7F4F90E00E946B0360E084E00E9497
S11304009600CE0101960E94A800809111014AE055
S1130410BE016F5F7F4F90E00E946B0360E082E05B
S11304200E949600CE0101960E94A80080911001BE
S11304304AE0BE016F5F7F4F90E00E946B0360E073
S113044081E00E949600CE0101960E94A8002696A3
S11304500FB6F894DEBF0FBECDBFDF91CF91FF91F1
S1130460EF91BF91AF919F918F917F916F915F9128
S11304704F913F912F911F910F900FBE0F901F909E
S113048018950E94B50288F09F5798F0B92F9927C4
S1130490B751B0F0E1F0660F771F881F991F1AF06B
S11304A0BA95C9F714C0B13091F00E94CF02B1E0FF
S11304B008950C94CF02672F782F8827B85F39F0FE
S11304C0B93FCCF3869577956795B395D9F73EF404
S11304D090958095709561957F4F8F4F9F4F0895AC
S11304E0E89409C097FB3EF49095809570956195CA
S11304F07F4F8F4F9F4F9923A9F0F92F96E9BB2780
S11305009395F695879577956795B795F111F8CFFB
S1130510FAF4BB0F11F460FF1BC06F5F7F4F8F4F66
S11305209F4F16C0882311F096E911C0772321F05C
S11305309EE8872F762F05C0662371F096E8862FF4
S113054070E060E02AF09A95660F771F881FDAF74B
S1130550880F9695879597F9089557FD9058440FFD
S1130560551F59F05F3F71F04795880F97FB991F0E
S113057061F09F3F79F087950895121613061406CB
S1130580551FF2CF4695F1DF08C016161706180658
S1130590991FF1CF86957105610508940895E89433
S11305A0BB2766277727CB0197F908950E94E902B4
S11305B00C945A030E944C0338F00E94530320F019
S11305C0952311F00C9443030C94490311240C94C7
S11305D0D0020E94AD0270F3959FC1F3950F50E0D5
S11305E0551F629FF001729FBB27F00DB11D639FE1
S11305F0AA27F00DB11DAA1F649F6627B00DA11D87
S1130600661F829F2227B00DA11D621F739FB00D2C
S1130610A11D621F839FA00D611D221F749F33279C
S1130620A00D611D231F849F600D211D822F762F35
S11306306A2F11249F5750409AF0F1F088234AF012
S1130640EE0FFF1FBB1F661F771F881F915050407E
S1130650A9F79E3F510580F00C9443030C94D002FB
S11306605F3FE4F3983ED4F3869577956795B79505
S1130670F795E7959F5FC1F7FE2B880F911D96951F
S1130680879597F9089597F99F6780E870E060E08F
S113069008959FEF80EC089500240A941616170617
S11306A018060906089500240A941216130614065F
S11306B005060895092E0394000C11F4882352F0C2
S11306C0BB0F40F4BF2B11F460FF04C06F5F7F4F7A
S11306D08F4F9F4F0895BB274A3031F4992322F45A
S11306E0BDE2909581959F4F0C947703BB27FB0146
S11306F05527AA27880F991FAA1FA41710F0A41B17
S113070083955051B9F7A05DAA3308F0A95DA19370
S1130710009779F7B111B1931192CB010C94900326
S1130720DC01FC01672F71917723E1F7329704C054
S11307307C916D9370836291AE17BF07C8F30895DF
S1070740F894FFCF57
S11307441F09051319141F0030303A30302E3000BD
S9030000FC
