S00B00006C63642E73726563E6
S11300000C9434000C9451000C9451000C94510045
S11300100C9451000C9451000C9451000C94510018
S11300200C9451000C9433010C9451000C94510025
S11300300C9451000C9451000C9451000C945100F8
S11300400C943D020C9451000C9451000C945100FA
S11300500C9451000C9451000C9451000C945100D8
S11300600C9451000C94510011241FBECFEFD8E022
S1130070DEBFCDBF11E0A0E0B1E0ECEDF5E002C0E1
S113008005900D92AA33B107D9F721E0AAE3B1E0B4
S113009001C01D92A534B207E1F70E94FA000C9446
S11300A0EC020C940000299A85E08A95F1F700008F
S11300B029980895CF93C82F662311F0289A01C078
S11300C02898549A559A569A579A5F985E985D98CC
S11300D05C98CC230CF45F9AC6FD5E9AC5FD5D9ACC
S11300E0C4FD5C9A0E9453005F985E985D985C988A
S11300F0C3FD5F9AC2FD5E9AC1FD5D9AC0FD5C9A24
S11301000E9453005C9A5D9A5E9A5F9A87EB9BE02B
S11301100197F1F700C00000CF91089560E00E94BC
S11301205A00089561E00E945A000895611104C0C4
S113013080580E948E00089580540E948E00089575
S113014081E00E948E00089561E00E945A000895A3
S1130150CF93DF93EC012196FC018081882329F061
S11301600E94A40089918111FBCFDF91CF91089562
S1130170CF93C82F209A559A219A549A559A569AF1
S1130180579A8FEF99EF0197F1F700C000005D9A3D
S11301905C9A0E9453008FE19EE40197F1F700C03E
S11301A000000E9453008FEF90E00197F1F700C028
S11301B000000E9453008FEF90E00197F1F700C018
S11301C000005C980E9453008FEF90E00197F1F7D4
S11301D000C0000088E20E948E0088E00E948E0029
S11301E00E94A00086E00E948E008C2F0E948E0048
S11301F0CF9108958CE00E94B80080E40E948E00A4
S1130200C0E0D1E00AE211E089910E949200C01797
S1130210D107D1F780E80E948E0060E081E00E945F
S1130220960080E391E00E94A80062E08BE00E94C7
S1130230960083E60E94A400E1EBF0E080818760F1
S11302408083E0E7F0E080818160808385B58D7FE5
S113025085BD85B5856085BDEEE6F0E08081816071
S113026080837894FFCF1F920F920FB60F921124C0
S11302702F933F934F935F936F937F938F939F93AA
S1130280AF93BF93EF93FF93CF93DF9300D000D04E
S1130290CDB7DEB780E290E29A8389839C838B8317
S11302A0809144018F5F80934401809143018F5F6B
S11302B08C3318F48093430137C01092430180912A
S11302C042018F5F8C3318F4809342011AC010925C
S11302D0420160E08CE00E94960088E391E00E9475
S11302E0A80060E08DE00E94960088E391E00E94FF
S11302F0A80060E08EE00E94960088E391E00E94EE
S1130300A800809142014AE0BE016D5F7F4F889F43
S1130310C00111240E94B70260E08BE00E949600A5
S1130320CE0103960E94A80080914401863008F40F
S11303308DC010924401809141018F5F8A3018F47E
S11303408093410107C010924101809140018F5F69
S113035080934001809140018A3038F0109240012E
S113036080913F018F5F80933F0180913F018630F0
S113037038F010923F0180913E018F5F80933E01DF
S113038080913E01893038F010923E0180913D0108
S11303908F5F80933D0180913D01863010F0109273
S11303A03D01809141014AE0BE016F5F7F4F90E0C3
S11303B00E94B70260E087E00E949600CE01019699
S11303C00E94A800809140014AE0BE016F5F7F4F08
S11303D090E00E94B70260E085E00E949600CE01A2
S11303E001960E94A80080913F014AE0BE016F5F20
S11303F07F4F90E00E94B70260E084E00E94960084
S1130400CE0101960E94A80080913E014AE0BE01FF
S11304106F5F7F4F90E00E94B70260E082E00E942D
S11304209600CE0101960E94A80080913D014AE009
S1130430BE016F5F7F4F90E00E94B70260E081E0F1
S11304400E949600CE0101960E94A8000F900F9082
S11304500F900F90DF91CF91FF91EF91BF91AF91EA
S11304609F918F917F916F915F914F913F912F91C8
S11304700F900FBE0F901F9018951F920F920FB6FA
S11304800F9211242F933F934F935F936F937F9316
S11304908F939F93AF93BF93EF93FF9380913C010E
S11304A08F5F80933C01823039F480913B018F5FF0
S11304B080933B0110923C0180913B018530E1F532
S11304C010923B0180913A018F5F863019F080933E
S11304D03A0132C010923A0161E081E00E94960034
S11304E088E391E00E94A80061E082E00E94960007
S11304F088E391E00E94A80061E083E00E949600F6
S113050088E391E00E94A80061E084E00E949600E4
S113051088E391E00E94A80061E085E00E949600D3
S113052088E391E00E94A80061E086E00E949600C2
S113053088E391E00E94A80080913A0161E08F5F16
S11305400E94960080913B010E94A400FF91EF91CC
S1130550BF91AF919F918F917F916F915F914F91D7
S11305603F912F910F900FBE0F901F901895BB27AE
S11305704A3031F4992322F4BDE2909581959F4F3E
S11305800C94C302BB27FB015527AA27880F991F88
S1130590AA1FA41710F0A41B83955051B9F7A05DAE
S11305A0AA3308F0A95DA193009779F7B111B1932B
S11305B01192CB010C94DC02DC01FC01672F7191D8
S11305C07723E1F7329704C07C916D937083629135
S10F05D0AE17BF07C8F30895F894FFCFDE
S11305DC000000000000000010101010101010108B
S11305EC18181818181818181C1C1C1C1C1C1C1C5B
S11305FC1E1E1E1E1E1E1E1E1F1F1F1F1F1F1F1F03
S10D060C30303A30302E3000200068
S9030000FC
