S00C00004C4544532E73726563F0
S11300000C9434000C943E000C943E000C943E007E
S11300100C943E000C943E000C943E000C943E0064
S11300200C943E000C943E000C943E000C943E0054
S11300300C943E000C943E000C943E000C943E0044
S11300400C943E000C943E000C943E000C943E0034
S11300500C943E000C943E000C943E000C943E0024
S11300600C943E000C943E0011241FBECFEFD8E048
S1130070DEBFCDBF0E9440000C945A000C940000D7
S1130080259A2D98389A40985098589A20E291E0F1
S11300904899FECF3FEF44E38CE03150404080402C
S11300A0E1F700C0000085B1822785B988B18927AE
S10B00B088B9EECFF894FFCFEC
S9030000FC
